:020000040000FA
:06000000ACEF28F0120035
:02000600960062
:080008009EAA02D022EF22F0B3
:020010001200DC
:06001200A6B2FED71200A9
:08001800F2A402D000EF25F074
:0C0020001200D08E9F8AF28EF28C12002B
:04002C00FF0EE35090
:10003000186E480E01D04C0EE76EE72EFED7E76A29
:0C004000E72EFED7182EF7D700001200A4
:02004C001200A0
:01004E0000B1
:100050000C0088550000B40200001800000086550E
:100060000000FB010000020000004E000000FF0144
:100070000000010000007D550000CC0200000900D6
:100080000000375400000003000046010000E75361
:10009000000000020000500000009E530000A80174
:1000A0000000490000007C530000500200002200C4
:1000B0000000A552000046040000D700000087524F
:1000C00000008A0100001E000000FD510000000138
:1000D00000008A000000BB510000720200004200D4
:0200E00000001E
:0E00E200D9CFE6FFE1CFD9FF0A0EE126050EC9
:1000F000DB6A060EDB6A070EDB6A080EDB6A090E96
:10010000DB6A0301036B046B056B066B0301076B72
:10011000086B096B0A6B04014A6BDE6ADD6ADECF8D
:1001200014F0DDCF15F00C0E145C000E155801E331
:10013000AED0DECF14F0DDCF15F0190E1502F3CFDF
:1001400015F0190E1402F3CF14F0F4501526170E03
:100150001426030E1522030E14C0DBFF040E15C077
:10016000DBFF020EDB6A190EF36E020EDBCFF4FF2B
:10017000F350F45C35E209EC00F00400020EDB50B1
:10018000166E176A190E086E096ADECF0DF0DDCF04
:100190000EF02BEC28F006501624146E0750172092
:1001A000156E14C0E6FF15C0E6FFEAEC27F0E55235
:1001B000E552E66E020EDB50E76E030EDBCFE9FF81
:1001C000040EDBCFEAFFE750E926000EEA22E552F3
:1001D000E750EF6E09EC00F00400020EDB2AC3D7F3
:1001E000DECFE9FFDDCFEAFF190EEA02F3CFEAFF27
:1001F000190EE902F3CFE9FFF450EA26170EE926BB
:10020000030EEA22170EE926000EEA22EF0402E1AD
:100210000301012BDECFE9FFDDCFEAFF190EEA0271
:10022000F3CFEAFF190EE902F3CFE9FFF450EA2613
:10023000170EE926030EEA22170EE926000EEA221F
:10024000EF50030802E10301022BDECFE9FFDDCF0F
:10025000EAFF190EEA02F3CFEAFF190EE902F3CF23
:10026000E9FFF450EA26170EE926030EEA22180EDB
:10027000E926000EEA22EF0405E1010EF36E050EF9
:10028000F3CFDBFFDF2A010E01E3DB2A48D70301AE
:100290000251000806E2010EF36E080EF3CFDBFFF9
:1002A0000FD003010151000806E2010EF36E070EA4
:1002B000F3CFDBFF05D0010EF36E060EF3CFDBFFAD
:1002C000050EDB0405E1010EF36E090EF3CFDBFF33
:1002D0000301310E0D6F0301300E0E6F0301300E5E
:1002E0000F6F0301330E106F0301116B0401060E33
:1002F000456F09EC00F00400E66AE66AE66AE66A21
:10030000CBEC14F0E552E552E552E55231D8040148
:10031000010E436F090EDBCFE6FF080EDBCFE6FFD1
:10032000070EDBCFE6FF060EDBCFE6FFCBEC14F0CB
:10033000E552E552E552E552AA0EE66E2E0EE66E45
:10034000DD0EE66ECC0EE66EBB0EE66EAA0EE66E17
:10035000C8EC1DF0146E060EE15E14500A0EE15C4E
:1003600002E2E16AE552E16EE552E7CFD9FF120001
:10037000D9CFE6FFE1CFD9FF050EE126DF6A010EF6
:10038000DB6A020EDB6A030EDB6A0301025100081E
:1003900008E2030E006F010EF36E020EF3CFDBFFD7
:1003A0000DD00151000805E2010E006FDE52DD6E36
:1003B00005D0006B010EDF6E030EDB6A040EDB6AF4
:1003C0000C0EF36E040EDBCFF4FFF350F45C1AE274
:1003D000040EDB50190DF3CFE9FFF4CFEAFF170E3F
:1003E000E926030EEA22180EE926000EEA22EF049F
:1003F00006E1010EF36E030EF3CFDBFF03D0040E14
:10040000DB2ADED7030EDBCFE6FF020EDBCFE6FFF3
:10041000010EDBCFE6FFDFCFE6FFCBEC14F0E552B9
:10042000E552E552E552050EE15C02E2E16AE55271
:10043000E16EE552E7CFD9FF1200D9CFE6FFE1CF59
:10044000D9FF050EE126DF6A010EDB6A020EDB6AC8
:10045000030EDB6A03010251000808E2030E006F7D
:10046000010EF36E020EF3CFDBFF0DD00151000839
:1004700005E2010E006FDE52DD6E05D0006B010E4D
:10048000DF6E030EDB6A030EDBCFE6FF020EDBCF6F
:10049000E6FF010EDBCFE6FFDFCFE6FFCBEC14F08B
:1004A000E552E552E552E5520401010E436F146E28
:1004B000050EE15C03E200D0E16AE552E16E145002
:1004C000E552E7CFD9FF1200D9CFE6FFE1CFD9FF40
:1004D000050EE126DF6A010EDB6A020EDB6A030EFF
:1004E000DB6AFD0EDBCFE6FFFE0EDBCFE6FF120E72
:1004F000E66E030EE66E93EC25F0E552E552E5520A
:10050000E552000902E0000E1FD0030EDBCFE6FF2C
:10051000020EDBCFE6FF010EDBCFE6FFDFCFE6FF0B
:10052000CBEC14F0E552E552E552E552FB0EDBCF81
:10053000E6FFFC0EDBCFE6FF7BEC14F0E552E55264
:100540000401436B010E00D0146E050EE15C02E263
:10055000E16AE552E16E1450E552E7CFD9FF12008F
:10056000D9CFE6FFE1CFD9FF090EE126010EF36EE8
:10057000080EF3CFDBFF6CEC26F006C007F307C0D4
:1005800008F308C009F309C00AF3030EE96E030E6D
:10059000EA6EEE50030107190CE1EE500301081951
:1005A00008E1EE500301091904E1EE5003010A19B4
:1005B00000E101E1BBD007C303F308C304F309C39F
:1005C00005F30AC306F3DF6A0C0EDF5C01E3A4D077
:1005D000DF50190DF3CFE9FFF4CFEAFF170EE9263C
:1005E000030EEA22170EE926000EEA22EF0401E0CC
:1005F00091D0DF50190DF3CFE9FFF4CFEAFF170ECA
:10060000E926030EEA22150EE926000EEA22EE067E
:10061000000EED5ADF50190DF3CFE9FFF4CFEAFFDA
:10062000170EE926030EEA22150EE926000EEA222D
:10063000E9CF14F0EACF15F0010E14C0DBFF020E73
:1006400015C0DBFF010EDBCFE9FF020EDBCFEAFFB7
:10065000030EEFCFDBFF190EDF02F350150F146E00
:10066000040E14C0DBFF050EDB6A060EDB6A070E04
:10067000DB6A010EDBCFE9FF020EDBCFEAFFEF50B2
:10068000E66E190EDF02F350150FE66EE66A6BECAC
:1006900027F0E552E552E55209EC00F00400010EA6
:1006A000E76E010EDBCFE9FF020EDBCFEAFFE7507A
:1006B000E926000EEA22030EEFCFDBFF190EDF0260
:1006C000F350150F010F146E040E14C0DBFF050E5E
:1006D000DB6A060EDB6A070EDB6A010EE76E010EAF
:1006E000DBCFE9FF020EDBCFEAFFE750E926000E81
:1006F000EA22EF50E66E190EDF02F350150F010FDC
:10070000E66EE66A6BEC27F0E552E552E55209EC3D
:1007100000F00400DF2A58D79DEC15F0010806E12F
:1007200080840301015102E180928090090EE15C16
:1007300002E2E16AE552E16EE552E7CFD9FF12002D
:10074000D9CFE6FFE1CFD9FF040EE126FD0EDBCFC6
:10075000E9FFFE0EDBCFEAFF200EE926000EEA22BB
:10076000EF28DF6E010EDB6A020EDB6A0C0EDF5C27
:1007700001E3DF6AFD0EDBCFE9FFFE0EDBCFEAFF10
:10078000200EE926000EEA22EF68030EDB6A0C0E4B
:10079000F36E030EDBCFF4FFF350F45C02E346EF9D
:1007A00009F00C0E146E14C00EF0DFCF09F0BAEC95
:1007B00028F00550DF6EDF50190DF3CFE9FFF4CFBD
:1007C000EAFF170EE926030EEA22170EE926000EAD
:1007D000EA22EF5010E0DF50190DF3CFE9FFF4CF1C
:1007E000EAFF170EE926030EEA22180EE926000E8C
:1007F000EA22EF5004E1030EDB2ADF2AC8D7FD0E00
:10080000DBCFE9FFFE0EDBCFEAFFE9CF14F0EACF42
:1008100015F0010EDBCFF3FFDB2AF3500F01142498
:10082000E96E000E1520EA6E530EEF6EFD0EDBCF63
:10083000E9FFFE0EDBCFEAFFE9CF14F0EACF15F0B7
:10084000010EDBCFF3FFDB2AF3501424E96E000E18
:100850001520EA6E540EEF6EFD0EDBCFE9FFFE0EA3
:10086000DBCFEAFFE9CF14F0EACF15F0010EDBCFC2
:10087000F3FFDB2AF3501424E96E000E1520EA6E14
:100880004E0EEF6EFD0EDBCFE9FFFE0EDBCFEAFF73
:10089000E9CF14F0EACF15F0010EDBCFF3FFDB2A2E
:1008A000F3501424E96E000E1520EA6E3A0EEF6E36
:1008B000DF50190DF3CFE9FFF4CFEAFF170EE92659
:1008C000030EEA22E9CF16F0EACF17F0020EDBCFD3
:1008D000F3FFDB2AF3501624E96E000E1720EA6EB0
:1008E000EF50E66EFD0EDBCFE9FFFE0EDBCFEAFF39
:1008F000E9CF14F0EACF15F0010EDBCFF3FFDB2ACE
:10090000F3501424E96E000E1520EA6EE552E7500C
:10091000EF6EDF50190DF3CFE9FFF4CFEAFF170EAA
:10092000E926030EEA22E9CF16F0EACF17F0020E0D
:10093000DBCFF3FFDB2AF3501624E96E000E1720FD
:10094000EA6EEF50E66EFD0EDBCFE9FFFE0EDBCF69
:10095000EAFFE9CF14F0EACF15F0010EDBCFF3FF89
:10096000DB2AF3501424E96E000E1520EA6EE552DE
:10097000E750EF6EFD0EDBCFE9FFFE0EDBCFEAFFA7
:10098000E9CF14F0EACF15F0010EDBCFF3FFDB2A3D
:10099000F3501424E96E000E1520EA6E3B0EEF6E44
:1009A000DF50190DF3CFE9FFF4CFEAFF170EE92668
:1009B000030EEA22E9CF14F0EACF15F0020EDB5065
:1009C0001424E96E000E1520EA6EEF50360A01E19C
:1009D000DCD3030A01E1E6D2010A01E132D2070ABF
:1009E00001E17ED1010A01E19ED0030A01E0E4D3D6
:1009F000FD0EDBCFE9FFFE0EDBCFEAFFE9CF14F0FF
:100A0000EACF15F0010EDBCFF3FFDB2AF3501424FD
:100A1000E96E000E1520EA6E530EEF6EFD0EDBCF71
:100A2000E9FFFE0EDBCFEAFFE9CF14F0EACF15F0C5
:100A3000010EDBCFF3FFDB2AF3501424E96E000E26
:100A40001520EA6E410EEF6EFD0EDBCFE9FFFE0EC4
:100A5000DBCFEAFFE9CF14F0EACF15F0010EDBCFD0
:100A6000F3FFDB2AF3501424E96E000E1520EA6E22
:100A7000460EEF6EFD0EDBCFE9FFFE0EDBCFEAFF89
:100A8000E9CF14F0EACF15F0010EDBCFF3FFDB2A3C
:100A9000F3501424E96E000E1520EA6E450EEF6E39
:100AA000FD0EDBCFE9FFFE0EDBCFEAFFE9CF14F04E
:100AB000EACF15F0010EDBCFF3FFDB2AF35014244D
:100AC000E96E000E1520EA6E540EEF6EFD0EDBCFC0
:100AD000E9FFFE0EDBCFEAFFE9CF14F0EACF15F015
:100AE000010EDBCFF3FFDB2AF3501424E96E000E76
:100AF0001520EA6E790EEF6EFD0EDBCFE9FFFE0EDC
:100B0000DBCFEAFFE9CF14F0EACF15F0010EDBCF1F
:100B1000F3FFDB2AF3501424E96E000E1520EA6E71
:100B20003B0EEF6E49D3FD0EDBCFE9FFFE0EDBCFB0
:100B3000EAFFE9CF14F0EACF15F0010EDBCFF3FFA7
:100B4000DB2AF3501424E96E000E1520EA6E420EE3
:100B5000EF6EFD0EDBCFE9FFFE0EDBCFEAFFE9CF44
:100B600014F0EACF15F0010EDBCFF3FFDB2AF350D0
:100B70001424E96E000E1520EA6E520EEF6EFD0E83
:100B8000DBCFE9FFFE0EDBCFEAFFE9CF14F0EACFBF
:100B900015F0010EDBCFF3FFDB2AF3501424E96ECE
:100BA000000E1520EA6E450EEF6EFD0EDBCFE9FF5D
:100BB000FE0EDBCFEAFFE9CF14F0EACF15F0010E0D
:100BC000DBCFF3FFDB2AF3501424E96E000E15206F
:100BD000EA6E410EEF6EFD0EDBCFE9FFFE0EDBCFBE
:100BE000EAFFE9CF14F0EACF15F0010EDBCFF3FFF7
:100BF000DB2AF3501424E96E000E1520EA6E4B0E2A
:100C0000EF6EFD0EDBCFE9FFFE0EDBCFEAFFE9CF93
:100C100014F0EACF15F0010EDBCFF3FFDB2AF3501F
:100C20001424E96E000E1520EA6E440EEF6EFD0EE0
:100C3000DBCFE9FFFE0EDBCFEAFFE9CF14F0EACF0E
:100C400015F0010EDBCFF3FFDB2AF3501424E96E1D
:100C5000000E1520EA6E4F0EEF6EFD0EDBCFE9FFA2
:100C6000FE0EDBCFEAFFE9CF14F0EACF15F0010E5C
:100C7000DBCFF3FFDB2AF3501424E96E000E1520BE
:100C8000EA6E570EEF6EFD0EDBCFE9FFFE0EDBCFF7
:100C9000EAFFE9CF14F0EACF15F0010EDBCFF3FF46
:100CA000DB2AF3501424E96E000E1520EA6E4E0E76
:100CB000EF6EFD0EDBCFE9FFFE0EDBCFEAFFE9CFE3
:100CC00014F0EACF15F0010EDBCFF3FFDB2AF3506F
:100CD0001424E96E000E1520EA6E3B0EEF6E6CD206
:100CE000FD0EDBCFE9FFFE0EDBCFEAFFE9CF14F00C
:100CF000EACF15F0010EDBCFF3FFDB2AF35014240B
:100D0000E96E000E1520EA6E510EEF6EFD0EDBCF80
:100D1000E9FFFE0EDBCFEAFFE9CF14F0EACF15F0D2
:100D2000010EDBCFF3FFDB2AF3501424E96E000E33
:100D30001520EA6E550EEF6EFD0EDBCFE9FFFE0EBD
:100D4000DBCFEAFFE9CF14F0EACF15F0010EDBCFDD
:100D5000F3FFDB2AF3501424E96E000E1520EA6E2F
:100D6000410EEF6EFD0EDBCFE9FFFE0EDBCFEAFF9B
:100D7000E9CF14F0EACF15F0010EDBCFF3FFDB2A49
:100D8000F3501424E96E000E1520EA6E4C0EEF6E3F
:100D9000FD0EDBCFE9FFFE0EDBCFEAFFE9CF14F05B
:100DA000EACF15F0010EDBCFF3FFDB2AF35014245A
:100DB000E96E000E1520EA6E490EEF6EFD0EDBCFD8
:100DC000E9FFFE0EDBCFEAFFE9CF14F0EACF15F022
:100DD000010EDBCFF3FFDB2AF3501424E96E000E83
:100DE0001520EA6E540EEF6EFD0EDBCFE9FFFE0E0E
:100DF000DBCFEAFFE9CF14F0EACF15F0010EDBCF2D
:100E0000F3FFDB2AF3501424E96E000E1520EA6E7E
:100E1000590EEF6EFD0EDBCFE9FFFE0EDBCFEAFFD2
:100E2000E9CF14F0EACF15F0010EDBCFF3FFDB2A98
:100E3000F3501424E96E000E1520EA6E3B0EEF6E9F
:100E4000BBD1FD0EDBCFE9FFFE0EDBCFEAFFE9CF22
:100E500014F0EACF15F0010EDBCFF3FFDB2AF350DD
:100E60001424E96E000E1520EA6E4D0EEF6EFD0E95
:100E7000DBCFE9FFFE0EDBCFEAFFE9CF14F0EACFCC
:100E800015F0010EDBCFF3FFDB2AF3501424E96EDB
:100E9000000E1520EA6E450EEF6EFD0EDBCFE9FF6A
:100EA000FE0EDBCFEAFFE9CF14F0EACF15F0010E1A
:100EB000DBCFF3FFDB2AF3501424E96E000E15207C
:100EC000EA6E540EEF6EFD0EDBCFE9FFFE0EDBCFB8
:100ED000EAFFE9CF14F0EACF15F0010EDBCFF3FF04
:100EE000DB2AF3501424E96E000E1520EA6E480E3A
:100EF000EF6EFD0EDBCFE9FFFE0EDBCFEAFFE9CFA1
:100F000014F0EACF15F0010EDBCFF3FFDB2AF3502C
:100F10001424E96E000E1520EA6E4F0EEF6EFD0EE2
:100F2000DBCFE9FFFE0EDBCFEAFFE9CF14F0EACF1B
:100F300015F0010EDBCFF3FFDB2AF3501424E96E2A
:100F4000000E1520EA6E440EEF6EFD0EDBCFE9FFBA
:100F5000FE0EDBCFEAFFE9CF14F0EACF15F0010E69
:100F6000DBCFF3FFDB2AF3501424E96E000E1520CB
:100F7000EA6E530EEF6EFD0EDBCFE9FFFE0EDBCF08
:100F8000EAFFE9CF14F0EACF15F0010EDBCFF3FF53
:100F9000DB2AF3501424E96E000E1520EA6E3B0E96
:100FA000EF6E0AD1FD0EDBCFE9FFFE0EDBCFEAFFCD
:100FB000E9CF14F0EACF15F0010EDBCFF3FFDB2A07
:100FC000F3501424E96E000E1520EA6E500EEF6EF9
:100FD000FD0EDBCFE9FFFE0EDBCFEAFFE9CF14F019
:100FE000EACF15F0010EDBCFF3FFDB2AF350142418
:100FF000E96E000E1520EA6E520EEF6EFD0EDBCF8D
:10100000E9FFFE0EDBCFEAFFE9CF14F0EACF15F0DF
:10101000010EDBCFF3FFDB2AF3501424E96E000E40
:101020001520EA6E4F0EEF6EFD0EDBCFE9FFFE0ED0
:10103000DBCFEAFFE9CF14F0EACF15F0010EDBCFEA
:10104000F3FFDB2AF3501424E96E000E1520EA6E3C
:10105000440EEF6EFD0EDBCFE9FFFE0EDBCFEAFFA5
:10106000E9CF14F0EACF15F0010EDBCFF3FFDB2A56
:10107000F3501424E96E000E1520EA6E550EEF6E43
:10108000FD0EDBCFE9FFFE0EDBCFEAFFE9CF14F068
:10109000EACF15F0010EDBCFF3FFDB2AF350142467
:1010A000E96E000E1520EA6E430EEF6EFD0EDBCFEB
:1010B000E9FFFE0EDBCFEAFFE9CF14F0EACF15F02F
:1010C000010EDBCFF3FFDB2AF3501424E96E000E90
:1010D0001520EA6E540EEF6EFD0EDBCFE9FFFE0E1B
:1010E000DBCFEAFFE9CF14F0EACF15F0010EDBCF3A
:1010F000F3FFDB2AF3501424E96E000E1520EA6E8C
:10110000490EEF6EFD0EDBCFE9FFFE0EDBCFEAFFEF
:10111000E9CF14F0EACF15F0010EDBCFF3FFDB2AA5
:10112000F3501424E96E000E1520EA6E4F0EEF6E98
:10113000FD0EDBCFE9FFFE0EDBCFEAFFE9CF14F0B7
:10114000EACF15F0010EDBCFF3FFDB2AF3501424B6
:10115000E96E000E1520EA6E4E0EEF6EFD0EDBCF2F
:10116000E9FFFE0EDBCFEAFFE9CF14F0EACF15F07E
:10117000010EDBCFF3FFDB2AF3501424E96E000EDF
:101180001520EA6E3B0EEF6E17D0FD0EDBCFE9FFA8
:10119000FE0EDBCFEAFFE9CF14F0EACF15F0010E27
:1011A000DBCFF3FFDB2AF3501424E96E000E152089
:1011B000EA6E230EEF6E00D0020EDB2ADF50190D0F
:1011C000F3CFE9FFF4CFEAFF170EE926030EEA2278
:1011D000E9CF14F0EACF15F0020EDB501424E96ECB
:1011E000000E1520EA6EEF5030E0DF50190DF3CFFE
:1011F000E9FFF4CFEAFF170EE926030EEA22E9CF52
:1012000016F0EACF17F0020EDB501624E96E000E3E
:101210001720EA6EEF50E66EFD0EDBCFE9FFFE0E03
:10122000DBCFEAFFE9CF14F0EACF15F0010EDB5077
:101230001424E96E000E1520EA6EE552E750EF6EB9
:10124000010EDB2A020EDB2AB9D7FD0EDBCFE9FF48
:10125000FE0EDBCFEAFFE9CF14F0EACF15F0010E66
:10126000DB501424E96E000E1520EA6EEF6ADFCF22
:1012700044F4FD0EDBCFE9FFFE0EDBCFEAFF200ECC
:10128000E926000EEA2244C4EFFF00D0040EE15C20
:1012900002E2E16AE552E16EE552E7CFD9FF1200C2
:1012A000D9CFE6FFE1CFD9FF040EE126FD0EDBCF5B
:1012B000E9FFFE0EDBCFEAFF200EE926000EEA2250
:1012C000EF28DF6E010EDB6A020EDB6A0C0EDF5CBC
:1012D00001E3DF6AFD0EDBCFE9FFFE0EDBCFEAFFA5
:1012E000200EE926000EEA22EF68030EDB6A0C0EE0
:1012F000F36E030EDBCFF4FFF350F45C02E3F6EF82
:101300000EF00C0E146E14C00EF0DFCF09F0BAEC24
:1013100028F00550DF6EDF50190DF3CFE9FFF4CF51
:10132000EAFF170EE926030EEA22170EE926000E41
:10133000EA22EF5010E0DF50190DF3CFE9FFF4CFB0
:10134000EAFF170EE926030EEA22180EE926000E20
:10135000EA22EF0404E1030EDB2ADF2AC8D7FD0EE0
:10136000DBCFE9FFFE0EDBCFEAFFE9CF14F0EACFD7
:1013700015F0010EDBCFF3FFDB2AF3500F0114242D
:10138000E96E000E1520EA6E530EEF6EFD0EDBCFF8
:10139000E9FFFE0EDBCFEAFFE9CF14F0EACF15F04C
:1013A000010EDBCFF3FFDB2AF3501424E96E000EAD
:1013B0001520EA6E540EEF6EFD0EDBCFE9FFFE0E38
:1013C000DBCFEAFFE9CF14F0EACF15F0010EDBCF57
:1013D000F3FFDB2AF3501424E96E000E1520EA6EA9
:1013E0004E0EEF6EFD0EDBCFE9FFFE0EDBCFEAFF08
:1013F000E9CF14F0EACF15F0010EDBCFF3FFDB2AC3
:10140000F3501424E96E000E1520EA6E3A0EEF6ECA
:10141000DF50190DF3CFE9FFF4CFEAFF170EE926ED
:10142000030EEA22E9CF16F0EACF17F0020EDBCF67
:10143000F3FFDB2AF3501624E96E000E1720EA6E44
:10144000EF50E66EFD0EDBCFE9FFFE0EDBCFEAFFCD
:10145000E9CF14F0EACF15F0010EDBCFF3FFDB2A62
:10146000F3501424E96E000E1520EA6EE552E750A1
:10147000EF6EDF50190DF3CFE9FFF4CFEAFF170E3F
:10148000E926030EEA22E9CF16F0EACF17F0020EA2
:10149000DBCFF3FFDB2AF3501624E96E000E172092
:1014A000EA6EEF50E66EFD0EDBCFE9FFFE0EDBCFFE
:1014B000EAFFE9CF14F0EACF15F0010EDBCFF3FF1E
:1014C000DB2AF3501424E96E000E1520EA6EE55273
:1014D000E750EF6EFD0EDBCFE9FFFE0EDBCFEAFF3C
:1014E000E9CF14F0EACF15F0010EDBCFF3FFDB2AD2
:1014F000F3501424E96E000E1520EA6E3B0EEF6ED9
:10150000DF50190DF3CFE9FFF4CFEAFF170EE926FC
:10151000030EEA22E9CF14F0EACF15F0020EDB50F9
:101520001424E96E000E1520EA6EEF50360A01E130
:10153000DCD3030A01E1E6D2010A01E132D2070A53
:1015400001E17ED1010A01E19ED0030A01E0E4D36A
:10155000FD0EDBCFE9FFFE0EDBCFEAFFE9CF14F093
:10156000EACF15F0010EDBCFF3FFDB2AF350142492
:10157000E96E000E1520EA6E530EEF6EFD0EDBCF06
:10158000E9FFFE0EDBCFEAFFE9CF14F0EACF15F05A
:10159000010EDBCFF3FFDB2AF3501424E96E000EBB
:1015A0001520EA6E410EEF6EFD0EDBCFE9FFFE0E59
:1015B000DBCFEAFFE9CF14F0EACF15F0010EDBCF65
:1015C000F3FFDB2AF3501424E96E000E1520EA6EB7
:1015D000460EEF6EFD0EDBCFE9FFFE0EDBCFEAFF1E
:1015E000E9CF14F0EACF15F0010EDBCFF3FFDB2AD1
:1015F000F3501424E96E000E1520EA6E450EEF6ECE
:10160000FD0EDBCFE9FFFE0EDBCFEAFFE9CF14F0E2
:10161000EACF15F0010EDBCFF3FFDB2AF3501424E1
:10162000E96E000E1520EA6E540EEF6EFD0EDBCF54
:10163000E9FFFE0EDBCFEAFFE9CF14F0EACF15F0A9
:10164000010EDBCFF3FFDB2AF3501424E96E000E0A
:101650001520EA6E790EEF6EFD0EDBCFE9FFFE0E70
:10166000DBCFEAFFE9CF14F0EACF15F0010EDBCFB4
:10167000F3FFDB2AF3501424E96E000E1520EA6E06
:101680003B0EEF6E49D3FD0EDBCFE9FFFE0EDBCF45
:10169000EAFFE9CF14F0EACF15F0010EDBCFF3FF3C
:1016A000DB2AF3501424E96E000E1520EA6E420E78
:1016B000EF6EFD0EDBCFE9FFFE0EDBCFEAFFE9CFD9
:1016C00014F0EACF15F0010EDBCFF3FFDB2AF35065
:1016D0001424E96E000E1520EA6E520EEF6EFD0E18
:1016E000DBCFE9FFFE0EDBCFEAFFE9CF14F0EACF54
:1016F00015F0010EDBCFF3FFDB2AF3501424E96E63
:10170000000E1520EA6E450EEF6EFD0EDBCFE9FFF1
:10171000FE0EDBCFEAFFE9CF14F0EACF15F0010EA1
:10172000DBCFF3FFDB2AF3501424E96E000E152003
:10173000EA6E410EEF6EFD0EDBCFE9FFFE0EDBCF52
:10174000EAFFE9CF14F0EACF15F0010EDBCFF3FF8B
:10175000DB2AF3501424E96E000E1520EA6E4B0EBE
:10176000EF6EFD0EDBCFE9FFFE0EDBCFEAFFE9CF28
:1017700014F0EACF15F0010EDBCFF3FFDB2AF350B4
:101780001424E96E000E1520EA6E440EEF6EFD0E75
:10179000DBCFE9FFFE0EDBCFEAFFE9CF14F0EACFA3
:1017A00015F0010EDBCFF3FFDB2AF3501424E96EB2
:1017B000000E1520EA6E4F0EEF6EFD0EDBCFE9FF37
:1017C000FE0EDBCFEAFFE9CF14F0EACF15F0010EF1
:1017D000DBCFF3FFDB2AF3501424E96E000E152053
:1017E000EA6E570EEF6EFD0EDBCFE9FFFE0EDBCF8C
:1017F000EAFFE9CF14F0EACF15F0010EDBCFF3FFDB
:10180000DB2AF3501424E96E000E1520EA6E4E0E0A
:10181000EF6EFD0EDBCFE9FFFE0EDBCFEAFFE9CF77
:1018200014F0EACF15F0010EDBCFF3FFDB2AF35003
:101830001424E96E000E1520EA6E3B0EEF6E6CD29A
:10184000FD0EDBCFE9FFFE0EDBCFEAFFE9CF14F0A0
:10185000EACF15F0010EDBCFF3FFDB2AF35014249F
:10186000E96E000E1520EA6E510EEF6EFD0EDBCF15
:10187000E9FFFE0EDBCFEAFFE9CF14F0EACF15F067
:10188000010EDBCFF3FFDB2AF3501424E96E000EC8
:101890001520EA6E550EEF6EFD0EDBCFE9FFFE0E52
:1018A000DBCFEAFFE9CF14F0EACF15F0010EDBCF72
:1018B000F3FFDB2AF3501424E96E000E1520EA6EC4
:1018C000410EEF6EFD0EDBCFE9FFFE0EDBCFEAFF30
:1018D000E9CF14F0EACF15F0010EDBCFF3FFDB2ADE
:1018E000F3501424E96E000E1520EA6E4C0EEF6ED4
:1018F000FD0EDBCFE9FFFE0EDBCFEAFFE9CF14F0F0
:10190000EACF15F0010EDBCFF3FFDB2AF3501424EE
:10191000E96E000E1520EA6E490EEF6EFD0EDBCF6C
:10192000E9FFFE0EDBCFEAFFE9CF14F0EACF15F0B6
:10193000010EDBCFF3FFDB2AF3501424E96E000E17
:101940001520EA6E540EEF6EFD0EDBCFE9FFFE0EA2
:10195000DBCFEAFFE9CF14F0EACF15F0010EDBCFC1
:10196000F3FFDB2AF3501424E96E000E1520EA6E13
:10197000590EEF6EFD0EDBCFE9FFFE0EDBCFEAFF67
:10198000E9CF14F0EACF15F0010EDBCFF3FFDB2A2D
:10199000F3501424E96E000E1520EA6E3B0EEF6E34
:1019A000BBD1FD0EDBCFE9FFFE0EDBCFEAFFE9CFB7
:1019B00014F0EACF15F0010EDBCFF3FFDB2AF35072
:1019C0001424E96E000E1520EA6E4D0EEF6EFD0E2A
:1019D000DBCFE9FFFE0EDBCFEAFFE9CF14F0EACF61
:1019E00015F0010EDBCFF3FFDB2AF3501424E96E70
:1019F000000E1520EA6E450EEF6EFD0EDBCFE9FFFF
:101A0000FE0EDBCFEAFFE9CF14F0EACF15F0010EAE
:101A1000DBCFF3FFDB2AF3501424E96E000E152010
:101A2000EA6E540EEF6EFD0EDBCFE9FFFE0EDBCF4C
:101A3000EAFFE9CF14F0EACF15F0010EDBCFF3FF98
:101A4000DB2AF3501424E96E000E1520EA6E480ECE
:101A5000EF6EFD0EDBCFE9FFFE0EDBCFEAFFE9CF35
:101A600014F0EACF15F0010EDBCFF3FFDB2AF350C1
:101A70001424E96E000E1520EA6E4F0EEF6EFD0E77
:101A8000DBCFE9FFFE0EDBCFEAFFE9CF14F0EACFB0
:101A900015F0010EDBCFF3FFDB2AF3501424E96EBF
:101AA000000E1520EA6E440EEF6EFD0EDBCFE9FF4F
:101AB000FE0EDBCFEAFFE9CF14F0EACF15F0010EFE
:101AC000DBCFF3FFDB2AF3501424E96E000E152060
:101AD000EA6E530EEF6EFD0EDBCFE9FFFE0EDBCF9D
:101AE000EAFFE9CF14F0EACF15F0010EDBCFF3FFE8
:101AF000DB2AF3501424E96E000E1520EA6E3B0E2B
:101B0000EF6E0AD1FD0EDBCFE9FFFE0EDBCFEAFF61
:101B1000E9CF14F0EACF15F0010EDBCFF3FFDB2A9B
:101B2000F3501424E96E000E1520EA6E500EEF6E8D
:101B3000FD0EDBCFE9FFFE0EDBCFEAFFE9CF14F0AD
:101B4000EACF15F0010EDBCFF3FFDB2AF3501424AC
:101B5000E96E000E1520EA6E520EEF6EFD0EDBCF21
:101B6000E9FFFE0EDBCFEAFFE9CF14F0EACF15F074
:101B7000010EDBCFF3FFDB2AF3501424E96E000ED5
:101B80001520EA6E4F0EEF6EFD0EDBCFE9FFFE0E65
:101B9000DBCFEAFFE9CF14F0EACF15F0010EDBCF7F
:101BA000F3FFDB2AF3501424E96E000E1520EA6ED1
:101BB000440EEF6EFD0EDBCFE9FFFE0EDBCFEAFF3A
:101BC000E9CF14F0EACF15F0010EDBCFF3FFDB2AEB
:101BD000F3501424E96E000E1520EA6E550EEF6ED8
:101BE000FD0EDBCFE9FFFE0EDBCFEAFFE9CF14F0FD
:101BF000EACF15F0010EDBCFF3FFDB2AF3501424FC
:101C0000E96E000E1520EA6E430EEF6EFD0EDBCF7F
:101C1000E9FFFE0EDBCFEAFFE9CF14F0EACF15F0C3
:101C2000010EDBCFF3FFDB2AF3501424E96E000E24
:101C30001520EA6E540EEF6EFD0EDBCFE9FFFE0EAF
:101C4000DBCFEAFFE9CF14F0EACF15F0010EDBCFCE
:101C5000F3FFDB2AF3501424E96E000E1520EA6E20
:101C6000490EEF6EFD0EDBCFE9FFFE0EDBCFEAFF84
:101C7000E9CF14F0EACF15F0010EDBCFF3FFDB2A3A
:101C8000F3501424E96E000E1520EA6E4F0EEF6E2D
:101C9000FD0EDBCFE9FFFE0EDBCFEAFFE9CF14F04C
:101CA000EACF15F0010EDBCFF3FFDB2AF35014244B
:101CB000E96E000E1520EA6E4E0EEF6EFD0EDBCFC4
:101CC000E9FFFE0EDBCFEAFFE9CF14F0EACF15F013
:101CD000010EDBCFF3FFDB2AF3501424E96E000E74
:101CE0001520EA6E3B0EEF6E17D0FD0EDBCFE9FF3D
:101CF000FE0EDBCFEAFFE9CF14F0EACF15F0010EBC
:101D0000DBCFF3FFDB2AF3501424E96E000E15201D
:101D1000EA6E230EEF6E00D0020EDB2ADF50190DA3
:101D2000F3CFE9FFF4CFEAFF170EE926030EEA220C
:101D3000E9CF14F0EACF15F0020EDB501424E96E5F
:101D4000000E1520EA6EEF5030E0DF50190DF3CF92
:101D5000E9FFF4CFEAFF170EE926030EEA22E9CFE6
:101D600016F0EACF17F0020EDB501624E96E000ED3
:101D70001720EA6EEF50E66EFD0EDBCFE9FFFE0E98
:101D8000DBCFEAFFE9CF14F0EACF15F0010EDB500C
:101D90001424E96E000E1520EA6EE552E750EF6E4E
:101DA000010EDB2A020EDB2AB9D7FD0EDBCFE9FFDD
:101DB000FE0EDBCFEAFFE9CF14F0EACF15F0010EFB
:101DC000DB501424E96E000E1520EA6EEF6ADFCFB7
:101DD00044F4FD0EDBCFE9FFFE0EDBCFEAFF200E61
:101DE000E926000EEA2244C4EFFF00D0040EE15CB5
:101DF00002E2E16AE552E16EE552E7CFD9FF120057
:101E0000D9CFE6FFE1CFD9FF070EE126FE0EDB506A
:101E1000190DF3CFE9FFF4CFEAFF170EE926030E01
:101E2000EA22170EE926000EEA22EF5033E0FE0EFA
:101E3000DB50190DF3CFE9FFF4CFEAFF170EE926C7
:101E4000030EEA22E9CF14F0EACF15F014C0E6FF42
:101E500015C0E6FF050EDBCFE6FF060EDBCFE6FF83
:101E600093EC25F0E552E552E552E552000912E106
:101E7000FE0EDB50190DF3CFE9FFF4CFEAFF170E8A
:101E8000E926030EEA22180EE926000EEA22EF04E4
:101E900001E17ED1FE0EDB50190DF3CFE9FFF4CF47
:101EA000EAFF170EE926030EEA22E9CF14F0EACF83
:101EB00015F0050E14C0DBFF060E15C0DBFF030195
:101EC0000051030A01E190D0020A01E048D1050E59
:101ED000DBCFE6FF060EDBCFE6FFEBEC14F0E552BE
:101EE000E552E76E020EE7CFDBFF020EDB50FF0884
:101EF00001E179D0050EDBCFE6FF060EDBCFE6FF72
:101F00007BEC14F0E552E552150EE66EE66AE66AE1
:101F1000020EDB50190DF3CFE9FFF4CFEAFF170EE5
:101F2000E926030EEA22E9CF14F0EACF15F014C037
:101F3000E6FF15C0E6FF79EC25F0166E050EE15EB2
:101F400016500400020EDB50190DF3CF14F0F4CF3D
:101F500015F0170E1426030E1522030E14C0DBFF16
:101F6000040E15C0DBFF010EDB6A190EF36E010EC5
:101F7000DBCFF4FFF350F45C25E2010EDB50E76E9B
:101F8000030EDBCFE9FF040EDBCFEAFFE750E926C3
:101F9000000EEA22EF50E66E010EDBCFE6FF020EE6
:101FA000DB50190DF350E552E724E66EE66A6BEC60
:101FB00027F0E552E552E55209EC00F00400010E6D
:101FC000DB2AD3D7030101510DE10301006BE66A5F
:101FD000E66AE66A010EE66ECBEC14F0E552E552D5
:101FE000E552E552D5D0BCD0050EDBCFE6FF060E9C
:101FF000DBCFE6FFEBEC14F0E552E552E76E020EA4
:10200000E7CFDBFF020EDB50FF0801E1A7D0050E92
:10201000DBCFE6FF060EDBCFE6FF7BEC14F0E552EC
:10202000E552150EE66EE66AE66A020EDB50190D01
:10203000F3CFE9FFF4CFEAFF170EE926030EEA22F9
:10204000E9CF14F0EACF15F014C0E6FF15C0E6FFA3
:1020500079EC25F0166E050EE15E16500400020EB6
:10206000DB50190DF3CF14F0F4CF15F0170E142632
:10207000030E1522030E14C0DBFF040E15C0DBFF98
:10208000010EDB6A190EF36E010EDBCFF4FFF35085
:10209000F45C25E2010EDB50E76E030EDBCFE9FFB7
:1020A000040EDBCFEAFFE750E926000EEA22EF50EC
:1020B000E66E010EDBCFE6FF020EDB50190DF3508A
:1020C000E552E724E66EE66A6BEC27F0E552E5524E
:1020D000E55209EC00F00400010EDB2AD3D703011E
:1020E000025120E1030101510EE10301006BE66A98
:1020F000E66AE66A010EE66ECBEC14F0E552E552B4
:10210000E552E5520ED00301010E006FE66AE66A61
:10211000010EE66EE66ACBEC14F0E552E552E552AC
:10212000E5521BD0030101510CE1E66A010EE66E97
:10213000E66AE66ACBEC14F0E552E552E552E55268
:102140000CD0E66A010EE66E010EE66EE66ACBEC96
:1021500014F0E552E552E552E5521AD001D000D014
:10216000DF6A0C0EDF5C14E2DF50190DF3CFE9FFDC
:10217000F4CFEAFF170EE926030EEA22180EE9262D
:10218000000EEA22EF0402E1808602D0DF2AE9D7BE
:10219000070EE15C02E2E16AE552E16EE552E7CF4B
:1021A000D9FF1200D9CFE6FFE1CFD9FF050EE12616
:1021B000DF6A0C0EDF5C33E2DF50190DF3CFE9FF6D
:1021C000F4CFEAFF170EE926030EEA22170EE926DE
:1021D000000EEA22EF5021E0DF50190DF3CFE9FFA6
:1021E000F4CFEAFF170EE926030EEA22E9CF14F036
:1021F000EACF15F014C0E6FF15C0E6FFFD0EDBCFF9
:10220000E6FFFE0EDBCFE6FF93EC25F0E552E5524C
:10221000E552E552000901E1DFD0DF2ACAD7DF6AC3
:102220000C0EDF5C01E3D2D0DF50190DF3CFE9FFD4
:10223000F4CFEAFF170EE926030EEA22170EE9266D
:10224000000EEA22EF5001E0BFD0DF50190DF3CFAE
:10225000E9FFF4CFEAFF170EE926030EEA22170E74
:10226000E926000EEA22010EEF6E060EF66E000E53
:10227000F76E0900F5CF14F00800F5CF15F0DF5028
:10228000190DF3CFE9FFF4CFEAFF170EE926030E8D
:10229000EA22150EE926000EEA2214C0EEFF15C050
:1022A000EDFFDF50190DF3CFE9FFF4CFEAFF170E72
:1022B000E926030EEA22180EE926000EEA22010E94
:1022C000EF6EFD0EDBCFE6FFFE0EDBCFE6FFDF504D
:1022D000190DF3CFE9FFF4CFEAFF170EE926030E3D
:1022E000EA22E9CF14F0EACF15F014C0E6FF15C0DA
:1022F000E6FFB3EC25F0E552E552E552E552DF503A
:10230000190DF3CF14F0F4CF15F0170E1426030EA9
:102310001522030E14C0DBFF040E15C0DBFF010EF7
:10232000DB6A190EF36E010EDBCFF4FFF350F45CA1
:1023300024E2010EDB50E76E030EDBCFE9FF040E53
:10234000DBCFEAFFE750E926000EEA22EF50E66E07
:10235000010EDBCFE6FF190EDF02F350E552E72452
:10236000E66EE66A6BEC27F0E552E552E55209ECC1
:1023700000F00400010EDB2AD4D70301012B030176
:1023800002510CE1010EE66EE66A010EE66EE66AA7
:1023900002DBE552E552E552E5520CD0010EE66E45
:1023A000010EE66E010EE66EE66AF5DAE552E552DA
:1023B000E552E552FD0EDBCFE6FFFE0EDBCFE6FF7A
:1023C0009ADAE552E55202D0DF2A2AD703010251F8
:1023D00003E10301010E006F050EE15C02E2E16A18
:1023E000E552E16EE552E7CFD9FF1200D9CFE6FF03
:1023F000E1CFD9FF050EE126020EE76EFD0EDBCF21
:10240000E9FFFE0EDBCFEAFFE750E926000EEA22E5
:10241000EF5030080AE1FD0EDBCFE6FFFE0EDBCF0A
:10242000E6FF69DAE552E5528AD1DF6A0C0EDF5C1D
:1024300043E2DF50190DF3CFE9FFF4CFEAFF170EA7
:10244000E926030EEA22170EE926000EEA22EF50D3
:1024500031E0DF50190DF3CFE9FFF4CFEAFF170E9B
:10246000E926030EEA22E9CF14F0EACF15F014C0F2
:10247000E6FF15C0E6FFFD0EDBCFE6FFFE0EDBCF6D
:10248000E6FF93EC25F0E552E552E552E5520009EE
:1024900011E1DF50190DF3CFE9FFF4CFEAFF170E7A
:1024A000E926030EEA22180EE926000EEA22EF04BE
:1024B00001E145D1DF2ABAD703010051030A01E146
:1024C0008AD0020A01E03AD1DF6A0C0EDF5C01E338
:1024D00081D0FD0EDBCFE6FFFE0EDBCFE6FF7BDA21
:1024E000E552E552E76E020EE7CFDBFF020EDB504E
:1024F000FF086EE0150EE66EE66AE66A020EDB5035
:10250000190DF3CFE9FFF4CFEAFF170EE926030E0A
:10251000EA22E9CF14F0EACF15F014C0E6FF15C0A7
:10252000E6FF79EC25F0166E050EE15E165004000C
:10253000020EDB50190DF3CF14F0F4CF15F0170E87
:102540001426030E1522030E14C0DBFF040E15C063
:10255000DBFF010EDB6A190EF36E010EDBCFF4FF19
:10256000F350F45C25E2010EDB50E76E030EDBCF87
:10257000E9FF040EDBCFEAFFE750E926000EEA226E
:10258000EF50E66E010EDBCFE6FF020EDB50190DB9
:10259000F350E552E724E66EE66A6BEC27F0E5526D
:1025A000E552E55209EC00F00400010EDB2AD3D716
:1025B000030101510CE10301006BE66AE66AE66A79
:1025C000010EE66EE8D9E552E552E552E552B7D084
:1025D000DF2A7BD7B4D0DF6A0C0EDF5C01E3ADD01D
:1025E000FD0EDBCFE6FFFE0EDBCFE6FFF4D9E552B2
:1025F000E552E76E020EE7CFDBFF020EDB50FF086D
:1026000001E199D0150EE66EE66AE66A020EDB502D
:10261000190DF3CFE9FFF4CFEAFF170EE926030EF9
:10262000EA22E9CF14F0EACF15F014C0E6FF15C096
:10263000E6FF79EC25F0166E050EE15E16500400FB
:10264000020EDB50190DF3CF14F0F4CF15F0170E76
:102650001426030E1522030E14C0DBFF040E15C052
:10266000DBFF010EDB6A190EF36E010EDBCFF4FF08
:10267000F350F45C25E2010EDB50E76E030EDBCF76
:10268000E9FF040EDBCFEAFFE750E926000EEA225D
:10269000EF50E66E010EDBCFE6FF020EDB50190DA8
:1026A000F350E552E724E66EE66A6BEC27F0E5525C
:1026B000E552E55209EC00F00400010EDB2AD3D705
:1026C000030102511EE1030101510DE10301006B01
:1026D000E66AE66AE66A010EE66E5DD9E552E55203
:1026E000E552E5520DD00301010E006FE66AE66A7D
:1026F000010EE66EE66A4FD9E552E552E552E55223
:1027000019D0030101510BE1E66A010EE66EE66A9B
:10271000E66A41D9E552E552E552E5520BD0E66A48
:10272000010EE66E010EE66EE66A35D9E552E55217
:10273000E552E55204D0DF2A4FD701D000D0050E74
:10274000E15C02E2E16AE552E16EE552E7CFD9FFD2
:102750001200D9CFE6FFE1CFD9FF020EE126040136
:102760004A51495D0BE1FD0EDBCFE9FFFE0EDBCFE9
:10277000EAFFEE6AED6A010EDB6A2FD04951150DB2
:10278000F3CF14F0F4CF15F04B0E1426040E1522DF
:10279000FD0EDBCFE9FFFE0EDBCFEAFF14C0EEFF3C
:1027A00015C0EDFF4951150DF3CF14F0F4CF15F01E
:1027B0004B0E1426040E152214C0E6FF15C0E6FFCA
:1027C000D4EC25F0E552E552010EF3CFDBFF040116
:1027D000492B0A0E495D01E3496B010EDB50146E73
:1027E000020EE15C03E200D0E16AE552E16E1450B2
:1027F000E552E7CFD9FF1200D9CFE6FFE1CFD9FFED
:102800000401460502E1000E0AD0010E466FFE0EDD
:10281000DBCF48F4FD0EDBCF47F4010E00D0E552CC
:10282000E7CFD9FF1200D9CFE6FFE1CFD9FFE652BB
:10283000FE0EDB50190DF3CFE9FFF4CFEAFF170EC0
:10284000E926030EEA22180EE926000EEA22EF6AB4
:10285000FE0EDB50190DF3CFE9FFF4CFEAFF170EA0
:10286000E926030EEA22E9CF14F0EACF15F014C0EE
:10287000E6FF15C0E6FF3FD8E552E552FE0EDB50FD
:10288000190DF3CFE9FFF4CFEAFF170EE926030E87
:10289000EA22180EE926000EEA22EF50E66EFE0E3E
:1028A000DB50190DF350180FE66EE66A6BEC27F05B
:1028B000E552E552E55209EC00F00400DF6A0C0E27
:1028C000DF5C13E2DF50190DF3CFE9FFF4CFEAFF2D
:1028D000170EE926030EEA22180EE926000EEA2258
:1028E000EF0401E103D0DF2AEAD78096E552E552F2
:1028F000E7CFD9FF1200D9CFE6FFE1CFD9FFE652EB
:10290000DF6AFD0EDBCFE9FFFE0EDBCFEAFFEF5003
:1029100024E0FD0EDBCFE9FFFE0EDBCFEAFFEF5038
:10292000E66E04014A51150DF3CF14F0F4CF15F003
:102930004B0E1426040E1522DF500F011424E96EED
:10294000000E1520EA6EE552E750EF6EDF2AFD0E0D
:10295000DB2AFE0E01E3DB2AD4D704014A51150D10
:10296000F3CF14F0F4CF15F04B0E1426040E1522FD
:10297000DF500F011424E96E000E1520EA6EEF6A95
:1029800004014A2B0A0E4A5D01E34A6BE552E55207
:10299000E7CFD9FF1200D9CFE6FFE1CFD9FFFE0E76
:1029A000DB50E8B08080E8A08090FD0EDB50E8B0FE
:1029B0008082E8A08092FC0EDB50E8B08084E8A022
:1029C0008094FB0EDB50E8B08086E8A08096E5524C
:1029D000E7CFD9FF1200D9CFE6FFE1CFD9FF040E30
:1029E000E126DF6A0C0EDF5C01E399D0DF50190DA0
:1029F000F3CFE9FFF4CFEAFF170EE926030EEA2230
:102A0000170EE926000EEA22EF5001E186D0DF50D2
:102A1000190DF3CFE9FFF4CFEAFF170EE926030EF5
:102A2000EA22180EE926000EEA22EF0476E0DF50D3
:102A3000190DF3CFE9FFF4CFEAFF170EE926030ED5
:102A4000EA22E9CF14F0EACF15F014C0E6FF15C072
:102A5000E6FFFD0EDBCFE6FFFE0EDBCFE6FF93ECDD
:102A600025F0E552E552E552E552000956E1DF5006
:102A7000190DF3CFE9FFF4CFEAFF170EE926030E95
:102A8000EA22170EE926000EEA22EF0403E1030111
:102A9000010713D0DF50190DF3CFE9FFF4CFEAFFA0
:102AA000170EE926030EEA22170EE926000EEA2287
:102AB000EF50030802E103010207DF50190DF3CFC5
:102AC000E9FFF4CFEAFF170EE926030EEA22170EFC
:102AD000E926000EEA22EF6ADF50190DF3CFE9FF75
:102AE000F4CFEAFF170EE926030EEA22150EE926B7
:102AF000000EEA22EE6AED6ADF50190DF3CFE9FF0E
:102B0000F4CFEAFF170EE926030EEA22180EE92693
:102B1000000EEA22EF6ADF5004D0DF2A63D7FF0EEF
:102B200000D0146E040EE15C02E2E16AE552E16E4F
:102B30001450E552E7CFD9FF1200D9CFE6FFE1CF1D
:102B4000D9FF020EE126010EDB6ADF6A0C0EDF5CA4
:102B50005BE2DF50190DF3CFE9FFF4CFEAFF170E68
:102B6000E926030EEA22170EE926000EEA22EF04F8
:102B700049E1DF50190DF3CFE9FFF4CFEAFF170E5B
:102B8000E926030EEA22150EE926000EEA22EE508F
:102B9000ED1038E10301022B03010107DF50190D8D
:102BA000F3CFE9FFF4CFEAFF170EE926030EEA227E
:102BB000170EE926000EEA22030EEF6EDF50190D04
:102BC000F3CFE9FFF4CFEAFF170EE926030EEA225E
:102BD000170EE926000EEA22EF50E66E190EDF020C
:102BE000F350170FE66EE66A6BEC27F0E552E552FC
:102BF000E55209EC00F004000301030E006FDE5201
:102C0000010EDD6EDF2AA2D7010EDB5000D0146E5C
:102C1000020EE15C02E2E16AE552E16E1450E55217
:102C2000E7CFD9FF1200D9CFE6FFE1CFD9FFE652B7
:102C3000DF6A0C0EDF5C41E2DF50190DF3CFE9FFD4
:102C4000F4CFEAFF170EE926030EEA22170EE92653
:102C5000000EEA22EF502FE0DF50190DF3CFE9FF0D
:102C6000F4CFEAFF170EE926030EEA22E9CF14F0AB
:102C7000EACF15F014C0E6FF15C0E6FFFD0EDBCF6E
:102C8000E6FFFE0EDBCFE6FF93EC25F0E552E552C2
:102C9000E552E55200090FE1DF50190DF3CFE9FFCE
:102CA000F4CFEAFF170EE926030EEA22180EE926F2
:102CB000000EEA22EF6ADF2ABCD7E552E552E7CFE1
:102CC000D9FF1200D9CFE6FFE1CFD9FFFD0EDBCF50
:102CD000E6FFFE0EDBCFE6FF0D0EE66E030EE66EA0
:102CE00093EC25F0E552E552E552E552000902E089
:102CF000000E02D0010E00D0E552E7CFD9FF12003E
:102D0000D9CFE6FFE1CFD9FF020EE1260301006B28
:102D10000301016B0301026B0301036B046B056B81
:102D2000066B0301076B086B096B0A6B0401446BAC
:102D300004014A6B0401496BDE6ADD6ADECF14F0E0
:102D4000DDCF15F00C0E145C000E155870E2DECFCE
:102D5000E9FFDDCFEAFF190EEA02F3CFEAFF190E11
:102D6000E902F3CFE9FFF450EA26170EE926030E35
:102D7000EA22170EE926000EEA22EF6ADECFE9FF0B
:102D8000DDCFEAFF190EEA02F3CFEAFF190EE902DE
:102D9000F3CFE9FFF450EA26170EE926030EEA22E4
:102DA000150EE926000EEA22EE6AED6ADECFE9FF93
:102DB000DDCFEAFF190EEA02F3CFEAFF190EE902AE
:102DC000F3CFE9FFF450EA26170EE926030EEA22B4
:102DD000180EE926000EEA22EF6A150EE66EE66A84
:102DE000E66ADECFE9FFDDCFEAFF190EEA02F3CF94
:102DF000EAFF190EE902F3CFE9FFF450EA26170EB5
:102E0000E926030EEA22E9CF14F0EACF15F014C048
:102E1000E6FF15C0E6FF79EC25F0166E050EE15EC3
:102E200016500400DF2A010E01E3DB2A87D7DE6A91
:102E3000DD6ADECF14F0DDCF15F02C0E145C000E31
:102E4000155812E2E66ADECFE6FFDDCFE6FF6BEC57
:102E500027F0E552E552E55209EC00F00400DF2AC4
:102E6000010E01E3DB2AE5D7040143050BE1E66A25
:102E7000E66AE66A010EE66E8EDDE552E552E5523F
:102E8000E55209D0E66AE66AE66AE66A84DDE5525A
:102E9000E552E552E552020EE15C02E2E16AE552DA
:102EA000E16EE552E7CFD9FF1200D9CFE6FFE1CFBF
:102EB000D9FF030EE126FD0EDBCFE9FFFE0EDBCFCF
:102EC000EAFF010EEFCFDBFF020EDB6A010EDB50E3
:102ED000A00A65E0010A57E0030A23E0220A0BE09A
:102EE000020EDB6AFB0EDBCFE9FFFC0EDBCFEAFF55
:102EF000920EEF6E5FD0F90EDBCFE6FFFA0EDBCF5E
:102F0000E6FF27DCE552E552E76E020EE7CFDBFF76
:102F1000FB0EDBCFE9FFFC0EDBCFEAFF800EEF6E8E
:102F200049D0010EE76EFD0EDBCF14F0FE0EDBCFB5
:102F300015F0E7501426000E152214C0E6FF15C048
:102F4000E6FF71DEE552E552010EE76EFD0EDBCFC6
:102F500014F0FE0EDBCF15F0E7501426000E1522FC
:102F600014C0E6FF15C0E6FFF6EC11F0E552E5529D
:102F7000FB0EDBCFE9FFFC0EDBCFEAFFA20EEF6E0C
:102F8000020EDB6A17D0BCDEFB0EDBCFE9FFFC0EC6
:102F9000DBCFEAFFA10EEF6E020EDB6A0BD0020E52
:102FA000DB6AFB0EDBCFE9FFFC0EDBCFEAFFA00EF6
:102FB000EF6E00D0020EDB50146E030EE15C03E2F4
:102FC00000D0E16AE552E16E1450E552E7CFD9FF37
:022FD0001200ED
:0E2FD200080EE66E5DEC21F0E552E66A3EEC7C
:102FE0001DF0E552ECEC1CF0FFEF1CF0D9CFE6FF32
:102FF000E1CFD9FF060EE126DF68D950020FE66E59
:10300000000EDA20E66ED950030FE66E000EDA20CD
:10301000E66E18EC24F0E552E552E552E55200095F
:1030200001E1E9D2020EDBCFE6FF030EDBCFE6FFC4
:10303000ECDAE552E552DF6EFF0EDF5C01E1DBD238
:1030400001010051060A01E1BED2030A01E174D276
:10305000010A01E15AD20C0A01E123D20B0A01E173
:10306000ECD1040A01E1B5D1050A01E121D1030A3D
:1030700001E18AD0010A01E0BED2080EDF5C0FE157
:10308000235100080BE2DFCFE6FF6FEC21F0E552A1
:10309000010123074751000801E2470774D00A0ED7
:1030A000DF5C10E1235100080CE273EC1CF0010E10
:1030B000E66E3EEC1DF0E552ECEC1CF00101010E59
:1030C000006F61D0130EDF5C0BE1090EE66E3EEC83
:1030D0001DF0E552ECEC1CF00101050E006F53D021
:1030E0000C0EDF5C1CE1690EE66E010EE66E50EC24
:1030F00009F0E552E552FF0E0101895D0FE0690E0E
:10310000E66E010EE66E10EC1DF0E552E552ECECB9
:103110001CF0FFEC1CF00101080E006F34D00B0E08
:10312000DF5C1CE1480EE66E010EE66EA0EC03F0DB
:10313000E552E552FF0E0101685D0FE0480EE66EB4
:10314000010EE66E10EC1DF0E552E552ECEC1CF0C1
:10315000FFEC1CF00101030E006F15D02351EA6A49
:10316000020FE96E010EEA22DFCFEFFF2351EA6A78
:10317000020FE96E010EEA22EF50E66E6FEC21F0CD
:10318000E5520101232B37D2080EDF5C16E12351F3
:10319000000808E2DFCFE6FF6FEC21F0E552010105
:1031A00023070AD0E66A3EEC1DF0E552ECEC1CF079
:1031B000FFEC1CF00101006B7AD0DF50360A65E0AD
:1031C000030A51E0010A3DE0070A29E0010A15E07F
:1031D000030A01E06CD0020EE66E84EC1DF0E552AD
:1031E00001014751EA6A260FE96E010EEA22310E0B
:1031F000EF6E472B070E006F5AD0030EE66E84EC7D
:103200001DF0E55201014751EA6A260FE96E010EF1
:10321000EA22320EEF6E472B070E006F48D0040EE5
:10322000E66E84EC1DF0E55201014751EA6A260F73
:10323000E96E010EEA22330EEF6E472B070E006F88
:1032400036D0050EE66E84EC1DF0E55201014751C3
:10325000EA6A260FE96E010EEA22340EEF6E472B62
:10326000070E006F24D0060EE66E84EC1DF0E552CA
:1032700001014751EA6A260FE96E010EEA22350E76
:10328000EF6E472B070E006F12D0070EE66E84EC30
:103290001DF0E55201014751EA6A260FE96E010E61
:1032A000EA22360EEF6E472B070E006F00D0A3D137
:1032B000080EDF5C18E12351000808E2DFCFE6FFCB
:1032C0006FEC21F0E552010123070AD0010EE66EF2
:1032D000D5DBE55281DB0101020E476F010E006F65
:1032E0002469256B75D00A0EDF5C16E123510008B6
:1032F00010E243DB260EE66E010EE66ED2EC10F015
:10330000E552E552E66ABADBE55266DB78DB01019D
:10331000006B2469256B5CD0030EDB50245D3DE11E
:10332000140EF36E020EDBCFF4FFF350F45C1DE2DB
:1033300023072351EA6A020FE96E010EEA22DFCF6A
:10334000EFFF080EE66E6FEC21F0E552010123510C
:10335000EA6A020FE96E010EEA22EF50E66E6FECA8
:1033600021F0E5520101232B17D02351EA6A020F05
:10337000E96E010EEA22DFCFEFFF2351EA6A020F66
:10338000E96E010EEA22EF50E66E6FEC21F0E55295
:103390000101232B2469256B18D02351EA6A020FFF
:1033A000E96E010EEA22DFCFEFFF2351EA6A020F36
:1033B000E96E010EEA22EF50E66E6FEC21F0E55265
:1033C0000101232B030EDBCF24F1030EDBCF24F10D
:1033D00012D1080EDF5C0BE1010EE66E4FDBE55209
:1033E000FBDA0101020E476F010E006F25D00A0EB5
:1033F000DF5C22E14705EA6A260FE96E010EEA2248
:10340000EF50360809E1080EE66E38DBE552E4DAE3
:103410000101020E006F10D0B0DA260EE66E010E2A
:10342000E66ED2EC10F0E552E552E66A27DBE55293
:10343000D3DAE5DA0101006BDED0080EDF5C08E1CB
:10344000E66A1CDBE552C8DADADA0101006B28D043
:103450000B0EDF5C14E1480EE66E010EE66EA0EC8A
:1034600003F0E552E552FF0E0101685D07E0480EEA
:10347000E66E010EE66ED4DAE552E55211D00A0E80
:10348000DF5C0EE168C1E6FF13EC14F0E5520101C8
:103490006869E66AF3DAE5529FDAB1DA0101006B96
:1034A000AAD0080EDF5C08E1E66AE8DAE55294DAB1
:1034B000A6DA0101006B28D00C0EDF5C14E1690E66
:1034C000E66E010EE66E50EC09F0E552E552FF0E95
:1034D0000101895D07E0690EE66E010EE66EA0DA75
:1034E000E552E55211D00A0EDF5C0EE189C1E6FF1C
:1034F00000EC0FF0E55201018969E66ABFDAE55296
:103500006BDA7DDA0101006B76D0080EDF5C07E133
:10351000E66AB4DAE55260DA0101006B0CD00A0EFB
:10352000DF5C09E180EC16F057DA69DAE66AA6DAC0
:10353000E5520101006B5FD0080EDF5C08E1E66A2E
:103540009DDAE55249DA5BDA0101006B3BD00A0EE5
:10355000DF5C29E1050EDB6A2351EA6A020FE96E9E
:10356000010EEA22EF6A020EE66E010EE66E62ECD2
:1035700016F0E552E552E76E050EE7CFDBFFDB0400
:103580000AE10A0EE66E7ADAE55226DA38DA010145
:10359000060E006F07D0E66A71DAE5521DDA2FDAFF
:1035A0000101006B0FD02351EA6A020FE96E010E90
:1035B000EA22DFCFEFFF2A0EE66E6FEC21F0E55234
:1035C0000101232B18D0080EDF5C08E1E66A56DA09
:1035D000E55202DA14DA0101006B0CD0300EDF5C28
:1035E00009E10B0EE66E4ADAE552F6D908DA010176
:1035F000040E006F00D0060EE15C02E2E16AE552C3
:10360000E16EE552E7CFD9FF1200D9CFE6FFE1CF57
:10361000D9FFE652DF6801010051060A01E116D127
:10362000020A01E1FDD0010A01E1EBD00D0A01E13E
:10363000CFD00B0A01E1B3D0010A76E0050A5EE0C3
:10364000060A34E0010A01E01AD1FE0EDB50050D36
:10365000F3CFF6FFF4CFF7FF3C0EF6264F0EF7221E
:103660000800F550DF6E020E235D08E3080EDF5CF4
:1036700004E00A0EDF5C01E0DF6817D02351000888
:1036800010E223510EE02A0EDF5C09E00B0EDF5C36
:1036900006E00C0EDF5C03E0130EDF5C01E1DF6887
:1036A00004D02A0EDF5C01E1DF68E9D0FE0EDB50BA
:1036B000050DF3CFF6FFF4CFF7FF3C0EF6264F0EC5
:1036C000F7220800F550DF6E310EDF5C16E0320E97
:1036D000DF5C13E0330EDF5C10E0340EDF5C0DE0E6
:1036E000350EDF5C0AE0360EDF5C07E0080EDF5CBB
:1036F00004E00A0EDF5C01E0DF68C1D0FE0EDB50A3
:10370000050DF3CFF6FFF4CFF7FF3C0EF6264F0E74
:10371000F7220800F550DF6E0A0EDF5C04E0080EA9
:10372000DF5C01E0DF68ABD0FE0EDB50245D10E112
:10373000140EF36EFD0EDBCFF4FFF350F45C06E2E3
:10374000252B050E255D01E3256B01D0256B01D0EE
:10375000256BFE0EDB50050DF3CF14F0F4CF15F002
:103760003C0E14264F0E152225510F011424F66E1F
:10377000000E1520F76E0800F550DF6E0C0EDF5CB2
:1037800003E00B0EDF5C02E1DF6808D00A0EDF5CAD
:1037900003E0080EDF5C02E10101256B70D0FE0E34
:1037A000DB50050DF3CFF6FFF4CFF7FF3C0EF62606
:1037B0004F0EF7220800F550DF6E0A0EDF5C07E0BF
:1037C000080EDF5C04E00B0EDF5C01E0DF6857D021
:1037D000FE0EDB50050DF3CFF6FFF4CFF7FF3C0EE6
:1037E000F6264F0EF7220800F550DF6E0A0EDF5C5A
:1037F00007E0080EDF5C04E00C0EDF5C01E0DF6830
:103800003ED0FE0EDB50050DF3CFF6FFF4CFF7FFF1
:103810003C0EF6264F0EF7220800F550DF6E2FD033
:10382000FE0EDB50050DF3CFF6FFF4CFF7FF3C0E95
:10383000F6264F0EF7220800F550DF6E0A0EDF5C09
:1038400004E0080EDF5C01E0DF6819D0FE0EDB50FB
:10385000050DF3CFF6FFF4CFF7FF3C0EF6264F0E23
:10386000F7220800F550DF6E300EDF5C07E0080E2F
:10387000DF5C04E00A0EDF5C01E0DF6800D0DF50AF
:1038800000D0E552E552E7CFD9FF1200D9CFE6FFCD
:10389000E1CFD9FFFE0EDB50010A17E0030A0BE06F
:1038A000020A01E01CD0E66AE9D8E55295D8A7D80B
:1038B0000101006B14D0080EE66EE0D8E5528CD8FA
:1038C0009ED80101020E006F0AD0010EE66ED6D816
:1038D000E55282D894D80101010E006F00D0E55264
:1038E000E7CFD9FF1200D9CFE6FFE1CFD9FF020E13
:1038F000E126010EDB6A0101230513E14751EA6A63
:10390000260FE96E010EEA22300EEF6E472B47516B
:10391000EA6A260FE96E010EEA2202C1EFFF472B89
:1039200012D04751EA6A260FE96E010EEA2202C15F
:10393000EFFF472B4751EA6A260FE96E010EEA2294
:1039400003C1EFFF472B300E275D146E300E265D4E
:103950000A0DF3501424E76E010EE7CFDBFFDB50B6
:10396000146E020EE15C03E200D0E16AE552E16E02
:103970001450E552E7CFD9FF1200D9CFE6FFE1CFCF
:10398000D9FFE652DF6A01012351DF5C14E2DF5008
:10399000EA6A020FE96E010EEA22EF50E66E475125
:1039A000EA6A260FE96E010EEA22E552E750EF6E51
:1039B000472BDF2AE8D74751EA6A260FE96E010E46
:1039C000EA22EF6A472B200E475D01E3476BE55281
:1039D000E552E7CFD9FF1200200EE66EE66AE66AEE
:1039E000020EE66E010EE66E79EC25F0146E050E01
:1039F000E15E14500101236B256B24691200200E37
:103A0000E66EE66AE66A260EE66E010EE66E79EC72
:103A100025F0146E050EE15E14500101476B120093
:103A2000D9CFE6FFE1CFD9FFE65268EC21F0DF6A9B
:103A3000DF50E76EFD0EDBCFE9FFFE0EDBCFEAFFC6
:103A4000E750E926000EEA22EF5013E0DF50E76E60
:103A5000FD0EDBCFE9FFFE0EDBCFEAFFE750E926E4
:103A6000000EEA22EF50E66E6FEC21F0E552DF2AFD
:103A7000DFD7E552E552E7CFD9FF1200D9CFE6FFF5
:103A8000E1CFD9FF030EE126FE0EEA6ADB34FE0B1E
:103A9000EA36E96EB40EE926020EEA22010EEECFF6
:103AA000DBFF020EEDCFDBFF68EC21F0DF6ADF50B9
:103AB000E76E010EDBCFF6FF020EDBCFF7FFE7501C
:103AC000F626000EF7220800F55014E0DF50E76EEE
:103AD000010EDBCFF6FF020EDBCFF7FFE750F62635
:103AE000000EF7220800F550E66E6FEC21F0E5526B
:103AF000DF2ADDD7030EE15C02E2E16AE552E16E06
:103B0000E552E7CFD9FF1200D9CFE6FFE1CFD9FFC9
:103B1000030EE126FE0EEA6ADB34FE0BEA36E96E9E
:103B2000B40EE926020EEA22010EEECFDBFF020EF2
:103B3000EDCFDBFFDF6ADF50E76E010EDBCFF6FF74
:103B4000020EDBCFF7FFE750F626000EF722080043
:103B5000F55014E0DF50E76E010EDBCFF6FF020EEA
:103B6000DBCFF7FFE750F626000EF7220800F550EE
:103B7000E66E6FEC21F0E552DF2ADDD7030EE15C43
:103B800002E2E16AE552E16EE552E7CFD9FF1200A9
:103B9000D9CFE6FFE1CFD9FFFE0EDBCF01F2FD0E5C
:103BA000DBCF02F2FC0EDBCF03F2FB0EDBCF04F225
:103BB000F90EDBCF45F2FA0EDBCF46F204D8E55220
:103BC000E7CFD9FF1200B00EE66EFE0EE66EE66A93
:103BD000E66AC3EC22F0E552E552E552E5520201F5
:103BE000416B426B010E006F436B050E446F4BC27D
:103BF00047F24CC248F24DC249F24EC24AF200C2EC
:103C00004FF212000201416B426B010E006F436BD9
:103C1000050E446F4BC247F24CC248F24DC249F206
:103C20004EC24AF200C24FF21200D9CFE6FFE1CFF6
:103C3000D9FF060EE126DF6A6CEC26F006C04BF2D7
:103C400007C04CF208C04DF209C04EF2470EE96EB3
:103C5000020EEA6EEE5002014B1909E1EE504C19CA
:103C600006E1EE504D1903E1EE504E1900E113E06C
:103C700000514F5D08E1020E005D05E1440744512B
:103C800002E1A1DFBED04BC247F24CC248F24DC2A6
:103C900049F24EC24AF20051030A01E1ADD0010AD5
:103CA00016E0030A02E0AEDFAAD084EC23F000099C
:103CB00001E1A7D0A1EC23F0DF6E02010151DF5C2E
:103CC00005E1416B020E006F050E446F98D084EC45
:103CD00023F0000901E195D0A1EC23F0DF6E020191
:103CE0000251DF5C74E1020EDB6A030EDB68D9501F
:103CF000030FE66E000EDA20E66E8DD8E552E5522F
:103D0000E76E020EE7CFDBFFDB50020A54E0030A46
:103D100005E0010A01E057D075DF73D0020145517B
:103D2000461147E0D950040FE66E000EDA20E66E29
:103D3000430EE66E020EE66E070EE66E020EE66EAD
:103D400005D046C2FAFF02014551F96EFADF146E42
:103D5000060EE15E14500201426FFA0E236F422BF1
:103D600043C224F2422BDE52020EDD6E4251F36E4C
:103D7000010EDBCFF4FFF350F45C1AE2040EDBCF4C
:103D8000E9FF050EDBCFEAFFEF50E66E010EDB50D8
:103D9000EA6A230FE96E020EEA22E552E750EF6E5F
:103DA000040EDB2A050E01E3DB2A010EDB2ADED737
:103DB00001D028DF08D00201FA0E236F422B43C244
:103DC00024F2422B00D00201030E006F14D04151A7
:103DD000412BEA6A050FE96E020EEA22DFCFEFFF00
:103DE0001E0E415D08E3FA0E236F422B900E246FE6
:103DF000422B030E006F03D05AD804DF00D000C25C
:103E00004FF2060EE15C02E2E16AE552E16EE55234
:103E1000E7CFD9FF1200D9CFE6FFE1CFD9FF020EDD
:103E2000E12602014105EA6A050FE96E020EEA2267
:103E3000EFCFDFFF010EDB6AFA0E055D05E0FF0E36
:103E4000055D02E0000E27D04105E66E050EE66E28
:103E5000020EE66E9BD8E552E552E552E76E010E82
:103E6000E7CFDBFFDB50DF5C0CE102014107415192
:103E7000EA6A050FE96E020EEA22EF6A010E0BD024
:103E80000AD0FD0EDBCFE9FFFE0EDBCFEAFF910E7D
:103E9000EF6E000E00D0146E020EE15C02E2E16AE9
:103EA000E552E16E1450E552E7CFD9FF1200D9CFA9
:103EB000E6FFE1CFD9FF020EE126DF6A010EDB6AE1
:103EC00042C2E6FF230EE66E020EE66E5FD8E552B2
:103ED000E552E552DF6E03C2E6FF27EC23F0E55220
:103EE000010EDB6A02014251F36E010EDBCFF4FFDB
:103EF000F350F45C0FE2010EDB50EA6A230FE96E27
:103F0000020EEA22EF50E66E27EC23F0E552010E96
:103F1000DB2AE8D7DFCFE6FF27EC23F0E55204C227
:103F2000E6FF27EC23F0E55243EC23F00400020EF9
:103F3000E15C02E2E16AE552E16EE552E7CFD9FFCA
:103F40001200D9CFE6FFE1CFD9FFFD0EDBCFF6FFA0
:103F5000FE0EDBCFF7FF0800F55012E0FD0EDBCFC1
:103F6000F6FFFE0EDBCFF7FF0800F550E66E27ECFC
:103F700023F0E552FD0EDB2AFE0E01E3DB2AE5D736
:103F800043EC23F0E552E7CFD9FF1200D9CFE6FF8B
:103F9000E1CFD9FF030EE126DF6A010EDB6AFC0EDA
:103FA000DB50F36E010EDBCFF4FFF350F45C12E252
:103FB000010EDB50E76EFD0EDBCFE9FFFE0EDBCF1F
:103FC000EAFFE750E926000EEA22EF50DF1A010E61
:103FD000DB2AE5D7DF50146E030EE15C03E200D06C
:103FE000E16AE552E16E1450E552E7CFD9FF1200C5
:103FF000D9CFE6FFE1CFD9FF030EE126300EF36EF5
:10400000010EF3CFDBFF750EF36E020EF3CFDBFF75
:10401000010EDF6EDF0425E105DA00000000839267
:104020008384000000008386000000008350800B22
:1040300001E0010EDF6E8396838600000000839608
:10404000010EDB06020E01E2DB06D950010FE96E1C
:10405000DACFEAFFEE50ED1003E1ECD9FF0E04D009
:10406000D9D7E8D9000E00D0146E030EE15C02E24D
:10407000E16AE552E16E1450E552E7CFD9FF120034
:10408000D9CFE6FFE1CFD9FF839283940000FE0EE3
:10409000DB50F00B146E0F0E8C1414108C6E00009D
:1040A0008386000000008396E552E7CFD9FF120017
:1040B000D9CFE6FFE1CFD9FF9BDF83928394000045
:1040C000FE0EDB50F00B146E0F0E8C1414108C6E61
:1040D00000008386000000008396FE0EDB38F00BA4
:1040E000F00B146E0F0E8C1414108C6E000083866F
:1040F000000000008396E552E7CFD9FF1200D9CF28
:10410000E6FFE1CFD9FF74DF838283940000FE0EC7
:10411000DB50F00B146E0F0E8C1414108C6E00001C
:104120008386000000008396FE0EDB38F00BF00B58
:10413000146E0F0E8C1414108C6E00008386000019
:1041400000008396E552E7CFD9FF1200D9CFE6FFF2
:10415000E1CFD9FF0B0EE1266DD9280EF36E010ECB
:10416000F3CFDBFF020EDB6A010EDBCF14F0DB06C0
:10417000020EDBCF15F001E2DB061450151006E04D
:10418000080EE66E16EC00F0E552EED7300EE66E45
:1041900077DFE5520A0EF36E030EF3CFDBFF040E5A
:1041A000DB6A030EDBCF14F0DB06040EDBCF15F069
:1041B00001E2DB061450151006E0080EE66E16EC60
:1041C00000F0E552EED7300EE66E5ADFE5520A0EE9
:1041D000F36E050EF3CFDBFF060EDB6A050EDBCFB9
:1041E00014F0DB06060EDBCF15F001E2DB061450FF
:1041F000151006E0080EE66E16EC00F0E552EED75C
:10420000300EE66E3DDFE5520A0EF36E070EF3CF79
:10421000DBFF080EDB6A070EDBCF14F0DB06080EAF
:10422000DBCF15F001E2DB061450151006E0080E96
:10423000E66E16EC00F0E552EED7200EE66E20DFBB
:10424000E5520A0EF36E090EF3CFDBFF0A0EDB6AAE
:10425000090EDBCF14F0DB060A0EDBCF15F001E20E
:10426000DB061450151006E0080EE66E16EC00F0A2
:10427000E552EED7280EE66E1BDFE552B9DEDF6EA3
:10428000DF5010E10F0EE66E13DFE552010EE66E11
:104290000FDFE552040EE66E0BDFE552060EE66E0A
:1042A00007DFE5520B0EE15C03E200D0E16AE55264
:1042B000E16EE552E7CFD9FF1200D9CFE6FFE1CF9B
:1042C000D9FFFE0EDBCF51F2E552E7CFD9FF120046
:1042D000010EE66EEDDEE5520201506B1200D9CF01
:1042E000E6FFE1CFD9FFE652FE0EDB500201515D41
:1042F00023E1505101E137D0100E505D0EE1800EE8
:10430000E66ED6DEE552DF6A100EDF5C06E2140EC2
:10431000E66ECEDEE552DF2AF7D7100EE66EC8DE77
:10432000E552200EE66EEBDEE552100EE66EC0DEC4
:10433000E5520201500717D0100E505D05E1C00E86
:10434000E66EB6DEE55208D0200E505D05E3506BF8
:10435000020EE66EADDEE552FE0EDBCFE6FFCFDEEF
:10436000E5520201502BE552E552E7CFD9FF12008A
:10437000EDDE010EE66E9CDEE5520201506B12008E
:10438000D9CFE6FFE1CFD9FFE652010EE66E90DE0F
:10439000E552DF6A100EDF5C1CE2FD0EDBCFE9FFA9
:1043A000FE0EDBCFEAFFEF50E66EDF50EA6A520FF7
:1043B000E96E020EEA22E552E750EF6EFD0EDBCF0A
:1043C000E9FFDB2AFE0EDBCFEAFF01E3DB2ADF2A6F
:1043D000E1D7C00EE66E6CDEE552DF6A100EDF5CE0
:1043E0001CE2FD0EDBCFE9FFFE0EDBCFEAFFEF5054
:1043F000E66EDF50EA6A520FE96E020EEA22E552DB
:10440000E750EF6EFD0EDBCFE9FFDB2AFE0EDBCFC0
:10441000EAFF01E3DB2ADF2AE1D7E552E552E7CFE5
:10442000D9FF1200958E958C958A958895969594CE
:1044300095921200959E959C959A9598959695942F
:04444000959212003F
:0C444400DACFE4FFE2CFDAFFE9CFE4FFBB
:10445000EACFE4FFF6CFE4FFF7CFE4FFF5CFE4FFC8
:10446000F3CFE4FFF4CFE4FFFACFE4FF00EE00F077
:10447000140EE80403E3EECFE4FFFBD700EE14F0E4
:10448000040EE80403E3EECFE4FFFBD7E652D9CFF6
:10449000E6FFE1CFD9FFE6520CEC28F0DF6E020117
:1044A0009351932BEA6A960FE96E020EEA22DFCF50
:1044B000EFFF1E0E935D01E3936B952B9E9AE552E1
:1044C000E552E7CFD9FFE55200EE17F0040EE804FD
:1044D00003E3E5CFEDFFFBD700EE13F0140EE80485
:1044E00003E3E5CFEDFFFBD7E5CFFAFFE5CFF4FF20
:1044F000E5CFF3FFE5CFF5FFE5CFF7FFE5CFF6FF1B
:10450000E5CFEAFFE5CFE9FFE5CFDAFF1100DACF2B
:10451000E4FFE2CFDAFFE9CFE4FFEACFE4FFE652BF
:10452000D9CFE6FFE1CFD9FFE6520201745104E191
:10453000ACA2FED7AC9A1BD07351EA6A750FE96E34
:10454000020EEA22EFCFDFFFDF50AD6E732B1E0E9F
:10455000735D01E3736B000EE76E7419E8AE02D071
:10456000743503D0E750D880745501E27407E552E2
:10457000E552E7CFD9FFE552E5CFEAFFE5CFE9FF06
:10458000E5CFDAFF1100D9CFE6FFE1CFD9FFE65240
:104590007C0EDF6ED950FB0FE96EFF0EDA20EA6E5B
:1045A000EE2A000EEE22EE22EE22D950FB0FE96E2B
:1045B000FF0EDA20EA6E040EE76ED890EF36010E99
:1045C000EB36020EEB36030EEB36E706F6E1146A25
:1045D000480E156EE80E166E010E176E14C006F02A
:1045E00015C007F016C008F017C009F0FB0EDBCFAE
:1045F0000BF0FC0EDBCF0CF0FD0EDBCF0DF0FE0E52
:10460000DBCF0EF0C6EC27F0FB0E06C0DBFFFC0E86
:1046100007C0DBFFFD0E08C0DBFFFE0E09C0DBFF9D
:10462000FB0EDBCFE6FFFC0EDBCFE6FFDFCFE6FFC6
:10463000EBEC26F0E552E552E552D08EAC8AAC9E0A
:10464000F28C9F8AE552E552E7CFD9FF1200D9CF0D
:10465000E6FFE1CFD9FFACA2FED702017251722B67
:10466000EA6A750FE96E020EEA22FE0EDBCFEFFF5B
:10467000742B1E0E725D01E3726B010E00D0E552C9
:10468000E7CFD9FF1200D9CFE6FFE1CFD9FF020E65
:10469000E126000E0201E76E7419E8AE02D074350F
:1046A00003D0E750D880745523E27351EA6A750F3E
:1046B000E96E020EEA22010EEFCFDBFFACA2FED7BD
:1046C000010EDB50AD6EACA2FED70201732B1E0EA5
:1046D000735D01E3736B000EE76E7419E8AE02D0F0
:1046E000743503D0E750D880745501E27407D1D7F0
:1046F000146E020EE15C02E2E16AE552E16E1450D2
:10470000E552E7CFD9FF1200D9CFE6FFE1CFD9FFBD
:10471000E652DF6A9D9A000E0201E76E9519E8AE37
:1047200002D0953503D0E750D880955502E2010EAE
:10473000DF6E9D8ADF5000D0E552E552E7CFD9FF0A
:104740001200D9CFE6FFE1CFD9FFE6529D9A0201D0
:104750009451942BEA6A960FE96E020EEA22EFCF8B
:10476000DFFF1E0E945D01E3946B000EE76E95195A
:10477000E8AE02D0953503D0E750D880955501E2D8
:1047800095079D8ADF5000D0E552E552E7CFD9FF6B
:02479000120015
:0E4792000101EB6BEC6BBC6BBD6BBE6BBF69CA
:1047A000C06B1200D9CFE6FFE1CFD9FF020EE126A0
:1047B0000101EE2B000EEF23D9CFE6FFDACFE6FFA3
:1047C0007ED8E552E552000901E128D00101EB5104
:1047D000EC5D02E1EC6BEB6BEC51E96EEA6AD890B0
:1047E000E936EA36C10EE926010EEA22DFCFEFFFF5
:1047F000EC51E96EEA6AD890E936EA36C10EE9264C
:10480000010EEA22010EE926000EEA22EEC1EFFFB8
:10481000140EEC5D01E2EC2BEE6BEF6B020EE15C33
:1048200002E2E16AE552E16EE552E7CFD9FF1200FC
:10483000D9CFE6FFE1CFD9FF0101EC51EB5D31E2C9
:10484000EB51E96EEA6AD890E936EA36C10EE926FC
:10485000010EEA22EF50E66EFD0EDBCFE9FFFE0E01
:10486000DBCFEAFFE552E750EF6EEB51E96EEA6A03
:10487000D890E936EA36C10EE926010EEA22010E89
:10488000E926000EEA22EF50E66EFB0EDBCFE9FFD1
:10489000FC0EDBCFEAFFE552E750EF6EEB2B010E8B
:1048A00002D0000E00D0E552E7CFD9FF120001017F
:1048B000EC6BEB6BBC6BBD6BBE6BBF691200D9CFF1
:1048C000E6FFE1CFD9FFE652DF68010E146E81509A
:1048D000800B01E0010E145C6FE18150200B01E0C0
:1048E000010E166E8150040B01E0010EE824156ED6
:1048F0008150100B01E0010E040DF3CF14F0815034
:10490000080B01E0010E080DF350141015101610DD
:104910000F0BDF6EDF500F0A4CE0010A47E0030A7D
:1049200042E0010A3DE0070A38E0010A33E0030AE9
:104930002FE0010A2AE00F0A25E0010A20E0030A1D
:104940001BE0010A16E0070A11E0010A0CE0030A65
:1049500007E0010A02E0DF682FD0050EDF6E2CD0E1
:10496000060EDF6E29D0090EDF6E26D00A0EDF6E2E
:1049700023D0020EDF6E20D0010EDF6E1DD0030E9D
:10498000DF6E1AD0070EDF6E17D0040EDF6E14D064
:10499000DF6A12D00B0EDF6E0FD00F0EDF6E0CD061
:1049A0000C0EDF6E09D0080EDF6E06D00E0EDF6E25
:1049B00003D00D0EDF6E00D0FF0EDF5C05E10101BC
:1049C000F069ED69000E17D00101F051DF5C0FE1D5
:1049D000ED51DF5C0CE0FD0EDBCFE9FFFE0EDBCF1F
:1049E000EAFFDFCFEFFFDFCFEDF1010E04D0DFCF25
:1049F000F0F1000E00D0E552E552E7CFD9FF1200EA
:104A0000DACFE4FFE2CFDAFFE9CFE4FFEACFE4FF59
:104A1000F6CFE4FFF7CFE4FFF5CFE4FFF3CFE4FFF9
:104A2000F4CFE4FFFACFE4FF00EE00F0140EE80448
:104A300003E3EECFE4FFFBD700EE14F0040EE8042E
:104A400003E3EECFE4FFFBD7E652F2940101982B8B
:104A5000000E99239A2B9B239C2B9D239E2B9F23F7
:104A6000A02BA123A207A35BA33504E2A251000857
:104A7000000EA35508E3A42B000EA523A623A7230D
:104A8000C80EA26FA36B8C518D1107E005D08DC1AC
:104A9000FAFF01018C51F96EFADF8AC1E6FF8BC182
:104AA000E6FF49EC28F0E552E552E55200EE17F03A
:104AB000040EE80403E3E5CFEDFFFBD700EE13F0AF
:104AC000140EE80403E3E5CFEDFFFBD7E5CFFAFFD3
:104AD000E5CFF4FFE5CFF3FFE5CFF5FFE5CFF7FF37
:104AE000E5CFF6FFE5CFEAFFE5CFE9FFE5CFDAFF57
:024AF0001100B3
:0E4AF200FE0EE3CFE9FFFF0EE3CFEAFFE9CFB0
:104B0000F3FFEACFF4FFFB0EE35003E1FC0EE350AA
:104B100009E0FB0EE30602E2FC0EE306FD0EE350A5
:104B2000EE6EF1D71200D9CFE6FFDACFE6FFFA0E2C
:104B3000E3CFD9FFFB0EE3CFDAFFFC0EE3CFE9FFB3
:104B4000FD0EE3CFEAFFDE50EF5C02E1EE66FBD73D
:104B5000F36EFF0EE3CFDAFFE552FF0EE3CFD9FF8E
:104B6000E552F3501200D9CFE6FFDACFE6FFFA0E96
:104B7000E3CFD9FFFB0EE3CFDAFFFC0EE3CFE9FF73
:104B8000FD0EE3CFEAFFE9CFF3FFEACFF4FFDECF7C
:104B9000EFFFEE66FCD7FF0EE3CFDAFFE552FF0E24
:104BA000E3CFD9FFE5521200FE0EE3CFE9FFFF0E7F
:104BB000E3CFEAFFF36AF46AEE5203E0F34AF42A21
:044BC000FBD712000D
:0C4BC400D9CFE6FFE1CFD9FF090EE126B2
:104BD000070EDB6A080EDB6A81EC28F0B8EC21F0E6
:104BE000000EE66EE66ADF0EE66EB10EE66E48EC8B
:104BF00026F0E552E552E552E552C9EC23F071EC9E
:104C000000F0E9EC17F011EC00F00101640E985D82
:104C1000000E995905E3CBEC28F00101986B996BD4
:104C20000101080E9A5D000E9B5905E3D2EC23F0BA
:104C300001019A6B9B6B0101020E9C5D000E9D5958
:104C400005E315EC1EF001019C6B9D6B0101F40E58
:104C50009E5D010E9F5905E3B0EC02F001019E6BD1
:104C60009F6B0101280EA05D000EA15905E3F6EC33
:104C700017F00101A06BA16B0400C7D7090EE15C1E
:104C800002E2E16AE552E16EE552E7CFD9FF120098
:104C9000D9CFE6FFE1CFD9FF9F0EE66E65EC28F095
:104CA000E552FD0EDBCF8AF1FE0EDBCF8BF1FB0E62
:104CB000DBCF8CF1FC0EDBCF8DF1F194FD0EDBCF61
:104CC000E6FFFE0EDBCFE6FF49EC28F0E552E552A9
:104CD000E552E7CFD9FF1200D9CFE6FFE1CFD9FFE8
:104CE000040EE126F29AA4C1DFFF010EA5C1DBFF8D
:104CF000020EA6C1DBFF030EA7C1DBFFF28ADECFE7
:104D000006F0DECF07F0DECF08F0DDCF09F0DD5290
:104D1000DD52040EE15C03E200D0E16AE552E16E8F
:104D2000E552E7CFD9FF1200F29E0101A46BA56BFB
:084D3000A66BA76BF28E1200C6
:084D3800500EF66E000EF76E3E
:104D4000000EF86E01010900F550F66F0900F550EC
:104D5000F76F03E1F66701D03DD00900F550F16F20
:104D60000900F550F26F0900F550F36F09000900D2
:104D7000F550E96E0900F550EA6E090009000900D6
:104D8000F550F46F0900F550F56F09000900F6CFF2
:104D9000F8F1F7CFF9F1F8CFFAF1F1C1F6FFF2C16E
:104DA000F7FFF3C1F8FF0101F45302E1F55307E007
:104DB0000900F550EE6EF407F8E2F507F9D7F8C1EF
:104DC000F6FFF9C1F7FFFAC1F8FF0101F607000E7F
:064DD000F75BBFD71200E3
:0A4DD600D9CFE6FFDACFE6FFE1CF08
:104DE000D9FFE2CFDAFFAC6AAB6AFD0EDBB0AC886C
:104DF000DBA202D0AC8CAB8CDBB4AC8EDBA602D0D9
:104E0000AB8801D0AB8ADBB8AC849E98DBBAAB86AA
:104E1000DBAC02D09D8A01D09D9A9E9ADBAE02D077
:104E20009D8801D09D98FB0EDB50AF6EFB0EFC0EF3
:104E3000DBCF15F015C014F0156A1450B06EAC8AB3
:104E4000AB8E949C948EAC50100B04E0AC50800B55
:104E500001E1948CE552E5CFDAFFE7CFD9FF1200EC
:104E6000434C454152204953535545530041444D0D
:104E7000494E2041435449564954593A00504153F0
:104E800053574F52443A0050415254204E4F3A002B
:104E90004D4154455249414C0050524F44554354A2
:104EA000494F4E004D4554484F4453005155414CD5
:104EB00049545900425245414B444F574E005341CB
:104EC000464554590049535355453A0053544154AB
:054ED000494F4E3A00BD
:0A4ED600D9CFE6FFDACFE6FFE1CF07
:104EE000D9FFE2CFDAFFE652DF6AFF0EE76EFC0E73
:104EF000DBCF14F0E75014161450A96EFB0EDB50F4
:104F0000A86EA69EA69CA684F250800B01E0010E1E
:104F1000DF6EF29E550EA76EAA0EA76EA682A6B2EF
:104F2000FED7DF50E8B0F28EE8A0F29EA694E552DC
:0C4F3000E552E5CFDAFFE7CFD9FF120011
:044F3C00312D312DB5
:104F400031324142433233444546330B0B0B0B0B9A
:104F50003447484934354A4B4C35364D4E4F360C64
:104F60000C0C0C0C37505152533854555638395795
:104F700058595A08080808082A2A2A2A2A302030AC
:0C4F8000203013131313130A0A0A0A0A44
:044F8C00056A046A44
:104F9000036A026A200EE76ED89006360736083696
:104FA000093602360336043605360B50025C0C50C7
:104FB00003580D5004580E50055809E30B50025E7B
:104FC0000C50035A0D50045A0E50055A062AE72E6B
:044FD000E4D7120010
:0C4FD400D9CFE6FFDACFE6FFE1CFD9FF2E
:104FE000E2CFDAFFFF0EE76EFC0EDBCF14F0FD0E12
:104FF000DBCF15F0E7501416156A1450A96EA69C65
:10500000A69EA68000000000A85000D0E552E5CF83
:08501000DAFFE7CFD9FF12001F
:08501800D9CFE6FFDACFE6FF75
:10502000E1CFD9FFE2CFDAFFE652F20E0101FD1720
:10503000ABAC03D0FD91ABB0FD81ABB4FD85ABB2A1
:10504000FD87AE50DF6EDF50E552E552E5CFDAFF67
:06505000E7CFD9FF1200BA
:0A50560008C012F008500D02F4CF5C
:1050600007F0F3CF06F009500E02F4CF09F0F3CFAA
:1050700008F00D02F3500726F4500822E86A0922CE
:1050800012500E02F3500726F4500822E86A092253
:02509000000C12
:0E509200D9CFE6FFDACFE6FFE1CFD9FFE2CFBC
:1050A000DAFFE652E652FC0EDBCFDEFFDBCFDDFFA0
:1050B000010EDB50D76EDF50D66EE552E552E55259
:0A50C000E5CFDAFFE7CFD9FF1200B9
:0650CA00D9CFE6FFDACFAA
:1050D000E6FFE1CFD9FFE2CFDAFFFD0EDB507F0B19
:1050E000D56ED76AD66AF294FD0EDBAE02D0F28A94
:1050F00001D0F29AD58EE552E5CFDAFFE7CFD9FF9E
:0251000012009B
:0E510200C26A0F0EC16E700ED3129B8C969077
:105110008490949C948E959E959C959A959895963E
:1051200095949592816892968096929080909294B0
:0851300080949292809212001B
:08513800000EF36E00EE00F022
:10514000060E01D81200EA6002D0EE6AFCD7F350D6
:08515000E9601200EE6AFCD7D1
:0851580010EE80F020EE80F063
:10516000F86A019C9CEC26F026EC00F0E2EC25F0BD
:04517000FBD7120057
:0C517400056A080EE76ED8900936053673
:105180000E50055C02E3056E092AE72EF7D71200E0
:105190000101FF6B12000101FF0503E1FF6B849029
:0A51A00003D0010EFF6F848012009F
:0651AA002020202020203F
:0B51B0002020202020202020202000B4
:0551BB000000000000EF
:1051C00000000000000000000000000000000000DF
:1051D00000000000000000000000000000000000CF
:1051E00000000000000000000000000000000000BF
:0D51F00000000000000000000000000000B2
:0351FD00000000AF
:10520000000000000000000000000000000000009E
:10521000000000000000000000000000000000008E
:1052200000FF00000000000000000000000000007F
:10523000000000000000000000000000000000006E
:10524000000000000000000000000000000000005E
:10525000000000000000000000000000000000004E
:105260000000000000FF000000000000000000003F
:10527000000000000000000000000000000000002E
:07528000000000000000FF28
:095287000000000000000000001E
:10529000000000000000000000000000000000C846
:0552A000000000000009
:0B52A5000000000000000000000000FE
:1052B00000000000000000000000000000000000EE
:1052C00000000000000000000000000000000000DE
:1052D00000000000000000000000000000000000CE
:1052E00000000000000000000000000000000000BE
:1052F00000000000000000000000000000000000AE
:10530000000000000000000000000000000000009D
:10531000000000000000000000000000000000008D
:10532000000000000000000000000000000000007D
:10533000000000000000000000000000000000006D
:10534000000000000000000000000000000000005D
:10535000000000000000000000000000000000004D
:10536000000000000000000000000000000000003D
:0C53700000000000000000000000000031
:04537C00000000002D
:10538000000000000000000000000000000000001D
:0E53900000000000000000000000000000000F
:02539E0000000D
:1053A00000000000000000000000000000000000FD
:1053B00000000000000000000000000000000000ED
:1053C00000000000000000000000000000000000DD
:1053D00000000000000000000000000000000000CD
:0753E000000000FF0000FFC8
:0953E700000000000000000000BD
:1053F00000000000000000000000000000000000AD
:10540000000000000000000000000000000000009C
:10541000000000000000000000000000000000008C
:10542000000000000000000000000000000000007C
:075430000000000000000075
:095437000000000000000000006C
:10544000000000000000000000000000000000005C
:10545000000000000000000000000000000000004C
:10546000000000000000000000000000000000003C
:10547000000000000000000000000000000000002C
:10548000000000000000000000000000000000001C
:10549000000000000000000000000000000000000C
:1054A00000000000000000000000000000000000FC
:1054B00000000000000000000000000000000000EC
:1054C00000000000000000000000000000000000DC
:1054D00000000000000000000000000000000000CC
:1054E00000000000000000000000000000000000BC
:1054F00000000000000000000000000000000000AC
:10550000000000000000000000000000000000009B
:10551000000000000000000000000000000000008B
:10552000000000000000000000000000000000007B
:10553000000000000000000000000000000000006B
:10554000000000000000000000000000000000005B
:10555000000000000000000000000000000000004B
:10556000000000000000000000000000000000003B
:0D557000000000000000000000000000002E
:03557D0049444559
:065580004F4E49435300A9
:02558600FFFF25
:08558800CC4EC54EBE4EB44EE0
:10559000AC4EA44E994E904E874E7D4E6D4E604E51
:020000040030CA
:0100010008F6
:010002001BE2
:0100030012EA
:010005008179
:010006008178
:010008000FE8
:01000900C036
:01000A000FE6
:01000B00E014
:01000C000FE4
:01000D0040B2
:00000001FF
